{"abi":[{"type":"constructor","inputs":[{"name":"_name","type":"string","internalType":"string"},{"name":"_symbol","type":"string","internalType":"string"},{"name":"_decimals","type":"uint8","internalType":"uint8"}],"stateMutability":"nonpayable"},{"type":"function","name":"allowance","inputs":[{"name":"","type":"address","internalType":"address"},{"name":"","type":"address","internalType":"address"}],"outputs":[{"name":"","type":"uint256","internalType":"uint256"}],"stateMutability":"view"},{"type":"function","name":"approve","inputs":[{"name":"spender","type":"address","internalType":"address"},{"name":"value","type":"uint256","internalType":"uint256"}],"outputs":[{"name":"","type":"bool","internalType":"bool"}],"stateMutability":"nonpayable"},{"type":"function","name":"balanceOf","inputs":[{"name":"","type":"address","internalType":"address"}],"outputs":[{"name":"","type":"uint256","internalType":"uint256"}],"stateMutability":"view"},{"type":"function","name":"decimals","inputs":[],"outputs":[{"name":"","type":"uint8","internalType":"uint8"}],"stateMutability":"view"},{"type":"function","name":"mint","inputs":[],"outputs":[],"stateMutability":"nonpayable"},{"type":"function","name":"name","inputs":[],"outputs":[{"name":"","type":"string","internalType":"string"}],"stateMutability":"view"},{"type":"function","name":"symbol","inputs":[],"outputs":[{"name":"","type":"string","internalType":"string"}],"stateMutability":"view"},{"type":"function","name":"totalSupply","inputs":[],"outputs":[{"name":"","type":"uint256","internalType":"uint256"}],"stateMutability":"view"},{"type":"function","name":"transfer","inputs":[{"name":"to","type":"address","internalType":"address"},{"name":"value","type":"uint256","internalType":"uint256"}],"outputs":[{"name":"","type":"bool","internalType":"bool"}],"stateMutability":"nonpayable"},{"type":"function","name":"transferFrom","inputs":[{"name":"from","type":"address","internalType":"address"},{"name":"to","type":"address","internalType":"address"},{"name":"value","type":"uint256","internalType":"uint256"}],"outputs":[{"name":"","type":"bool","internalType":"bool"}],"stateMutability":"nonpayable"},{"type":"event","name":"Approval","inputs":[{"name":"owner","type":"address","indexed":true,"internalType":"address"},{"name":"spender","type":"address","indexed":true,"internalType":"address"},{"name":"value","type":"uint256","indexed":false,"internalType":"uint256"}],"anonymous":false},{"type":"event","name":"Transfer","inputs":[{"name":"from","type":"address","indexed":true,"internalType":"address"},{"name":"to","type":"address","indexed":true,"internalType":"address"},{"name":"value","type":"uint256","indexed":false,"internalType":"uint256"}],"anonymous":false}],"bytecode":{"object":"0x608060405234801561001057600080fd5b50604051610be5380380610be583398101604081905261002f9161011e565b600061003b848261022a565b506001610048838261022a565b506002805460ff191660ff92909216919091179055506102e89050565b634e487b7160e01b600052604160045260246000fd5b600082601f83011261008c57600080fd5b81516001600160401b038111156100a5576100a5610065565b604051601f8201601f19908116603f011681016001600160401b03811182821017156100d3576100d3610065565b6040528181528382016020018510156100eb57600080fd5b60005b8281101561010a576020818601810151838301820152016100ee565b506000918101602001919091529392505050565b60008060006060848603121561013357600080fd5b83516001600160401b0381111561014957600080fd5b6101558682870161007b565b602086015190945090506001600160401b0381111561017357600080fd5b61017f8682870161007b565b925050604084015160ff8116811461019657600080fd5b809150509250925092565b600181811c908216806101b557607f821691505b6020821081036101d557634e487b7160e01b600052602260045260246000fd5b50919050565b601f82111561022557806000526020600020601f840160051c810160208510156102025750805b601f840160051c820191505b81811015610222576000815560010161020e565b50505b505050565b81516001600160401b0381111561024357610243610065565b6102578161025184546101a1565b846101db565b6020601f82116001811461028b57600083156102735750848201515b600019600385901b1c1916600184901b178455610222565b600084815260208120601f198516915b828110156102bb578785015182556020948501946001909201910161029b565b50848210156102d95786840151600019600387901b60f8161c191681555b50505050600190811b01905550565b6108ee806102f76000396000f3fe608060405234801561001057600080fd5b506004361061009e5760003560e01c8063313ce56711610066578063313ce5671461011857806370a082311461013757806395d89b4114610157578063a9059cbb1461015f578063dd62ed3e1461017257600080fd5b806306fdde03146100a3578063095ea7b3146100c15780631249c58b146100e457806318160ddd146100ee57806323b872dd14610105575b600080fd5b6100ab61019d565b6040516100b8919061060f565b60405180910390f35b6100d46100cf366004610679565b61022b565b60405190151581526020016100b8565b6100ec610298565b005b6100f760035481565b6040519081526020016100b8565b6100d46101133660046106a3565b610363565b6002546101259060ff1681565b60405160ff90911681526020016100b8565b6100f76101453660046106e0565b60046020526000908152604090205481565b6100ab61051e565b6100d461016d366004610679565b61052b565b6100f7610180366004610702565b600560209081526000928352604080842090915290825290205481565b600080546101aa90610735565b80601f01602080910402602001604051908101604052809291908181526020018280546101d690610735565b80156102235780601f106101f857610100808354040283529160200191610223565b820191906000526020600020905b81548152906001019060200180831161020657829003601f168201915b505050505081565b3360008181526005602090815260408083206001600160a01b038716808552925280832085905551919290917f8c5be1e5ebec7d5bd14f71427d1e84f3dd0314c0f7b2291e5b200ac8c7c3b925906102869086815260200190565b60405180910390a35060015b92915050565b6002546102a99060ff16600a61086c565b6102b5906103e861087b565b33600090815260046020526040812080549091906102d4908490610892565b90915550506002546102ea9060ff16600a61086c565b6102f6906103e861087b565b600360008282546103079190610892565b909155505060025433906000907fddf252ad1be2c89b69c2b068fc378daa952ba7f163c4a11628f55a4df523b3ef906103449060ff16600a61086c565b610350906103e861087b565b60405190815260200160405180910390a3565b6001600160a01b0383166000908152600460205260408120548211156103c75760405162461bcd60e51b8152602060048201526014602482015273496e73756666696369656e742062616c616e636560601b60448201526064015b60405180910390fd5b6001600160a01b03841660009081526005602090815260408083203384529091529020548211156104335760405162461bcd60e51b8152602060048201526016602482015275496e73756666696369656e7420616c6c6f77616e636560501b60448201526064016103be565b6001600160a01b0384166000908152600460205260408120805484929061045b9084906108a5565b90915550506001600160a01b03831660009081526004602052604081208054849290610488908490610892565b90915550506001600160a01b0384166000908152600560209081526040808320338452909152812080548492906104c09084906108a5565b92505081905550826001600160a01b0316846001600160a01b03167fddf252ad1be2c89b69c2b068fc378daa952ba7f163c4a11628f55a4df523b3ef8460405161050c91815260200190565b60405180910390a35060019392505050565b600180546101aa90610735565b336000908152600460205260408120548211156105815760405162461bcd60e51b8152602060048201526014602482015273496e73756666696369656e742062616c616e636560601b60448201526064016103be565b33600090815260046020526040812080548492906105a09084906108a5565b90915550506001600160a01b038316600090815260046020526040812080548492906105cd908490610892565b90915550506040518281526001600160a01b0384169033907fddf252ad1be2c89b69c2b068fc378daa952ba7f163c4a11628f55a4df523b3ef90602001610286565b602081526000825180602084015260005b8181101561063d5760208186018101516040868401015201610620565b506000604082850101526040601f19601f83011684010191505092915050565b80356001600160a01b038116811461067457600080fd5b919050565b6000806040838503121561068c57600080fd5b6106958361065d565b946020939093013593505050565b6000806000606084860312156106b857600080fd5b6106c18461065d565b92506106cf6020850161065d565b929592945050506040919091013590565b6000602082840312156106f257600080fd5b6106fb8261065d565b9392505050565b6000806040838503121561071557600080fd5b61071e8361065d565b915061072c6020840161065d565b90509250929050565b600181811c9082168061074957607f821691505b60208210810361076957634e487b7160e01b600052602260045260246000fd5b50919050565b634e487b7160e01b600052601160045260246000fd5b6001815b60018411156107c0578085048111156107a4576107a461076f565b60018416156107b257908102905b60019390931c928002610789565b935093915050565b6000826107d757506001610292565b816107e457506000610292565b81600181146107fa576002811461080457610820565b6001915050610292565b60ff8411156108155761081561076f565b50506001821b610292565b5060208310610133831016604e8410600b8410161715610843575081810a610292565b6108506000198484610785565b80600019048211156108645761086461076f565b029392505050565b60006106fb60ff8416836107c8565b80820281158282048414176102925761029261076f565b808201808211156102925761029261076f565b818103818111156102925761029261076f56fea264697066735822122000d2eda8d761deb92ab171455df736aec86800ddd89d3b2311985dd18277fc4e64736f6c634300081a0033","linkReferences":{}},"methodIdentifiers":{"allowance(address,address)":"dd62ed3e","approve(address,uint256)":"095ea7b3","balanceOf(address)":"70a08231","decimals()":"313ce567","mint()":"1249c58b","name()":"06fdde03","symbol()":"95d89b41","totalSupply()":"18160ddd","transfer(address,uint256)":"a9059cbb","transferFrom(address,address,uint256)":"23b872dd"},"id":0}