{"abi":[{"type":"function","name":"addLiquidity","inputs":[{"name":"token0","type":"address","internalType":"address"},{"name":"token1","type":"address","internalType":"address"},{"name":"amount0Desired","type":"uint256","internalType":"uint256"},{"name":"amount1Desired","type":"uint256","internalType":"uint256"},{"name":"amount0Min","type":"uint256","internalType":"uint256"},{"name":"amount1Min","type":"uint256","internalType":"uint256"}],"outputs":[{"name":"amount0","type":"uint256","internalType":"uint256"},{"name":"amount1","type":"uint256","internalType":"uint256"},{"name":"liquidity","type":"uint256","internalType":"uint256"}],"stateMutability":"nonpayable"},{"type":"function","name":"getAmountOut","inputs":[{"name":"amountIn","type":"uint256","internalType":"uint256"},{"name":"reserveIn","type":"uint256","internalType":"uint256"},{"name":"reserveOut","type":"uint256","internalType":"uint256"}],"outputs":[{"name":"","type":"uint256","internalType":"uint256"}],"stateMutability":"pure"},{"type":"function","name":"pools","inputs":[{"name":"","type":"address","internalType":"address"},{"name":"","type":"address","internalType":"address"}],"outputs":[{"name":"token0Reserve","type":"uint256","internalType":"uint256"},{"name":"token1Reserve","type":"uint256","internalType":"uint256"},{"name":"totalSupply","type":"uint256","internalType":"uint256"}],"stateMutability":"view"},{"type":"function","name":"swap","inputs":[{"name":"tokenIn","type":"address","internalType":"address"},{"name":"tokenOut","type":"address","internalType":"address"},{"name":"amountIn","type":"uint256","internalType":"uint256"},{"name":"amountOutMin","type":"uint256","internalType":"uint256"}],"outputs":[{"name":"amountOut","type":"uint256","internalType":"uint256"}],"stateMutability":"nonpayable"},{"type":"event","name":"AddLiquidity","inputs":[{"name":"token0","type":"address","indexed":true,"internalType":"address"},{"name":"token1","type":"address","indexed":true,"internalType":"address"},{"name":"amount0","type":"uint256","indexed":false,"internalType":"uint256"},{"name":"amount1","type":"uint256","indexed":false,"internalType":"uint256"},{"name":"liquidity","type":"uint256","indexed":false,"internalType":"uint256"}],"anonymous":false},{"type":"event","name":"Swap","inputs":[{"name":"tokenIn","type":"address","indexed":true,"internalType":"address"},{"name":"tokenOut","type":"address","indexed":true,"internalType":"address"},{"name":"amountIn","type":"uint256","indexed":false,"internalType":"uint256"},{"name":"amountOut","type":"uint256","indexed":false,"internalType":"uint256"}],"anonymous":false}],"bytecode":{"object":"0x6080604052348015600f57600080fd5b50610be88061001f6000396000f3fe608060405234801561001057600080fd5b506004361061004c5760003560e01c8063054d50d4146100515780633351733f14610077578063901754d7146100a5578063fe029156146100dc575b600080fd5b61006461005f3660046109d8565b6100ef565b6040519081526020015b60405180910390f35b61008a610085366004610a1b565b6101e4565b6040805193845260208401929092529082015260600161006e565b61008a6100b3366004610a70565b600060208181529281526040808220909352908152208054600182015460029092015490919083565b6100646100ea366004610aa3565b6104fd565b60008084116101415760405162461bcd60e51b8152602060048201526019602482015278125394d551919250d251539517d25394155517d05353d55395603a1b60448201526064015b60405180910390fd5b6000831180156101515750600082115b6101965760405162461bcd60e51b8152602060048201526016602482015275494e53554646494349454e545f4c495155494449545960501b6044820152606401610138565b60006101a4856103e5610afb565b905060006101b28483610afb565b90506000826101c3876103e8610afb565b6101cd9190610b12565b90506101d98183610b25565b979650505050505050565b6000806000876001600160a01b0316896001600160a01b0316106102405760405162461bcd60e51b815260206004820152601360248201527224a72b20a624a22faa27a5a2a72fa7a92222a960691b6044820152606401610138565b6001600160a01b03808a16600090815260208181526040808320938c1683529290529081206002810154909103610290578793508692506102896102848486610afb565b610726565b91506103c1565b80546001820154600091906102a5908b610afb565b6102af9190610b25565b905087811161030b57858110156103005760405162461bcd60e51b8152602060048201526015602482015274125394d551919250d251539517cc57d05353d55395605a1b6044820152606401610138565b88945080935061037a565b6001820154825460009190610320908b610afb565b61032a9190610b25565b9050878110156103745760405162461bcd60e51b8152602060048201526015602482015274125394d551919250d251539517cc17d05353d55395605a1b6044820152606401610138565b94508793505b815460028301546103bd91906103909088610afb565b61039a9190610b25565b600184015460028501546103ae9088610afb565b6103b89190610b25565b610796565b9250505b600082116104115760405162461bcd60e51b815260206004820152601d60248201527f494e53554646494349454e545f4c49515549444954595f4d494e5445440000006044820152606401610138565b838160000160008282546104259190610b12565b92505081905550828160010160008282546104409190610b12565b925050819055508181600201600082825461045b9190610b12565b909155505033600090815260038201602052604081208054849290610481908490610b12565b9091555061049390508a3330876107b0565b61049f893330866107b0565b60408051858152602081018590529081018390526001600160a01b03808b1691908c16907f2f3289d16dbc3007471d28c4936df3a95222bc938112449400d049637e3309ce9060600160405180910390a35096509650969350505050565b600080831161054a5760405162461bcd60e51b8152602060048201526019602482015278125394d551919250d251539517d25394155517d05353d55395603a1b6044820152606401610138565b60006001600160a01b0380861690871610801561058b576001600160a01b03808816600090815260208181526040808320938a1683529290522091506105b1565b6001600160a01b03808716600090815260208181526040808320938b1683529290522091505b6000816105c25782600101546105c5565b82545b90506000826105d55783546105db565b83600101545b90506105e88783836100ef565b94508585101561063a5760405162461bcd60e51b815260206004820152601a60248201527f494e53554646494349454e545f4f55545055545f414d4f554e540000000000006044820152606401610138565b821561067a57868460000160008282546106549190610b12565b925050819055508484600101600082825461066f9190610b47565b909155506106ad9050565b8684600101600082825461068e9190610b12565b90915550508354859085906000906106a7908490610b47565b90915550505b6106b98933308a6107b0565b6106c48833876108cb565b876001600160a01b0316896001600160a01b03167ffa2dda1cc1b86e41239702756b13effbc1a092b5c57e3ad320fbe4f3b13fe2358988604051610712929190918252602082015260400190565b60405180910390a350505050949350505050565b600060038211156107875750806000610740600283610b25565b61074b906001610b12565b90505b81811015610781579050806002816107668186610b25565b6107709190610b12565b61077a9190610b25565b905061074e565b50919050565b8115610791575060015b919050565b60008183106107a557816107a7565b825b90505b92915050565b604080516001600160a01b0385811660248301528481166044830152606480830185905283518084039091018152608490920183526020820180516001600160e01b03166323b872dd60e01b17905291516000928392908816916108149190610b5a565b6000604051808303816000865af19150503d8060008114610851576040519150601f19603f3d011682016040523d82523d6000602084013e610856565b606091505b50915091508180156108805750805115806108805750808060200190518101906108809190610b89565b6108c35760405162461bcd60e51b81526020600482015260146024820152731514905394d1915497d19493d357d1905253115160621b6044820152606401610138565b505050505050565b604080516001600160a01b038481166024830152604480830185905283518084039091018152606490920183526020820180516001600160e01b031663a9059cbb60e01b17905291516000928392908716916109279190610b5a565b6000604051808303816000865af19150503d8060008114610964576040519150601f19603f3d011682016040523d82523d6000602084013e610969565b606091505b50915091508180156109935750805115806109935750808060200190518101906109939190610b89565b6109d15760405162461bcd60e51b815260206004820152600f60248201526e1514905394d1915497d19052531151608a1b6044820152606401610138565b5050505050565b6000806000606084860312156109ed57600080fd5b505081359360208301359350604090920135919050565b80356001600160a01b038116811461079157600080fd5b60008060008060008060c08789031215610a3457600080fd5b610a3d87610a04565b9550610a4b60208801610a04565b95989597505050506040840135936060810135936080820135935060a0909101359150565b60008060408385031215610a8357600080fd5b610a8c83610a04565b9150610a9a60208401610a04565b90509250929050565b60008060008060808587031215610ab957600080fd5b610ac285610a04565b9350610ad060208601610a04565b93969395505050506040820135916060013590565b634e487b7160e01b600052601160045260246000fd5b80820281158282048414176107aa576107aa610ae5565b808201808211156107aa576107aa610ae5565b600082610b4257634e487b7160e01b600052601260045260246000fd5b500490565b818103818111156107aa576107aa610ae5565b6000825160005b81811015610b7b5760208186018101518583015201610b61565b506000920191825250919050565b600060208284031215610b9b57600080fd5b81518015158114610bab57600080fd5b939250505056fea264697066735822122026d4330ce6fa9109780553d5c06036c6c58f0dcd5efc0f055a1ba3096cf0e66564736f6c634300081a0033","linkReferences":{}},"methodIdentifiers":{"addLiquidity(address,address,uint256,uint256,uint256,uint256)":"3351733f","getAmountOut(uint256,uint256,uint256)":"054d50d4","pools(address,address)":"901754d7","swap(address,address,uint256,uint256)":"fe029156"},"id":0}